{
  "transactions": [
    {
      "hash": "0xb01ab90b1473282e8de928b741039228b0dcf093590f6b44584be068b10af152",
      "transactionType": "CALL",
      "contractName": null,
      "contractAddress": "0x608d407fa33f179ea5070fddceced7a5e64d0063",
      "function": "buy(address,uint256,address)",
      "arguments": [
        "0x722436623b696FB57521cD653feE7EcBFD391182",
        "0",
        "0x1B382A7b4496F14e0AAA2DA1E1626Da400426A03"
      ],
      "transaction": {
        "from": "0x1b382a7b4496f14e0aaa2da1e1626da400426a03",
        "to": "0x608d407fa33f179ea5070fddceced7a5e64d0063",
        "gas": "0x1d53a",
        "value": "0x2386f26fc10000",
        "input": "0xdb61c76e000000000000000000000000722436623b696fb57521cd653fee7ecbfd39118200000000000000000000000000000000000000000000000000000000000000000000000000000000000000001b382a7b4496f14e0aaa2da1e1626da400426a03",
        "nonce": "0x4a",
        "chainId": "0x138d4"
      },
      "additionalContracts": [],
      "isFixedGasLimit": false
    },
    {
      "hash": "0xa0020842b7e551772c8d8b1a630749b3a383f8b4f2ec8162606786e1ddc8b44f",
      "transactionType": "CALL",
      "contractName": null,
      "contractAddress": "0x722436623b696fb57521cd653fee7ecbfd391182",
      "function": "approve(address,uint256)",
      "arguments": [
        "0x608d407fA33F179eA5070fddcEcED7A5e64d0063",
        "115792089237316195423570985008687907853269984665640564039457584007913129639935"
      ],
      "transaction": {
        "from": "0x1b382a7b4496f14e0aaa2da1e1626da400426a03",
        "to": "0x722436623b696fb57521cd653fee7ecbfd391182",
        "gas": "0x96b2",
        "value": "0x0",
        "input": "0x095ea7b3000000000000000000000000608d407fa33f179ea5070fddceced7a5e64d0063ffffffffffffffffffffffffffffffffffffffffffffffffffffffffffffffff",
        "nonce": "0x4b",
        "chainId": "0x138d4"
      },
      "additionalContracts": [],
      "isFixedGasLimit": false
    },
    {
      "hash": "0x7a453fb40c535261771d0190971dbcad7855d95cf3e960afd9d851b1a34b6fba",
      "transactionType": "CALL",
      "contractName": null,
      "contractAddress": "0x608d407fa33f179ea5070fddceced7a5e64d0063",
      "function": "sell(address,address,uint256)",
      "arguments": [
        "0x722436623b696FB57521cD653feE7EcBFD391182",
        "0x1B382A7b4496F14e0AAA2DA1E1626Da400426A03",
        "250001"
      ],
      "transaction": {
        "from": "0x1b382a7b4496f14e0aaa2da1e1626da400426a03",
        "to": "0x608d407fa33f179ea5070fddceced7a5e64d0063",
        "gas": "0x20d41",
        "value": "0x0",
        "input": "0xcae270b6000000000000000000000000722436623b696fb57521cd653fee7ecbfd3911820000000000000000000000001b382a7b4496f14e0aaa2da1e1626da400426a03000000000000000000000000000000000000000000000000000000000003d091",
        "nonce": "0x4c",
        "chainId": "0x138d4"
      },
      "additionalContracts": [],
      "isFixedGasLimit": false
    }
  ],
  "receipts": [
    {
      "status": "0x1",
      "cumulativeGasUsed": "0x3922fc",
      "logs": [
        {
          "address": "0x722436623b696fb57521cd653fee7ecbfd391182",
          "topics": [
            "0xddf252ad1be2c89b69c2b068fc378daa952ba7f163c4a11628f55a4df523b3ef",
            "0x0000000000000000000000000000000000000000000000000000000000000000",
            "0x000000000000000000000000608d407fa33f179ea5070fddceced7a5e64d0063"
          ],
          "data": "0x000000000000000000000000000000000000000000000000b00bab4dc954d63a",
          "blockHash": "0xa29e98cbb2dd7a9da1dc8c7e1c01692cd0eab6e47a052b1e43992c7e6925797f",
          "blockNumber": "0x2c359b",
          "transactionHash": "0xb01ab90b1473282e8de928b741039228b0dcf093590f6b44584be068b10af152",
          "transactionIndex": "0x20",
          "logIndex": "0x47",
          "removed": false
        },
        {
          "address": "0x722436623b696fb57521cd653fee7ecbfd391182",
          "topics": [
            "0xddf252ad1be2c89b69c2b068fc378daa952ba7f163c4a11628f55a4df523b3ef",
            "0x000000000000000000000000608d407fa33f179ea5070fddceced7a5e64d0063",
            "0x0000000000000000000000001b382a7b4496f14e0aaa2da1e1626da400426a03"
          ],
          "data": "0x000000000000000000000000000000000000000000000000b00bab4dc954d63a",
          "blockHash": "0xa29e98cbb2dd7a9da1dc8c7e1c01692cd0eab6e47a052b1e43992c7e6925797f",
          "blockNumber": "0x2c359b",
          "transactionHash": "0xb01ab90b1473282e8de928b741039228b0dcf093590f6b44584be068b10af152",
          "transactionIndex": "0x20",
          "logIndex": "0x48",
          "removed": false
        }
      ],
      "logsBloom": "0x00000000000000000000200000000000000000008000000000000000000000000000000000000000000200000000000000000000000000000000000000000000000000000000000000000008040000000000000000000000000000000000000000000000020000000000000000000800004000000010000020000010000000040000000000000000000000000000000000000000000000000000000000000000000000000000000000000000000000000000000000000000000000010000000000000002000000000000000000000000000000000000000000000000000020000000000000000000000000000000000000000000000000000000000000000000",
      "type": "0x2",
      "transactionHash": "0xb01ab90b1473282e8de928b741039228b0dcf093590f6b44584be068b10af152",
      "transactionIndex": "0x20",
      "blockHash": "0xa29e98cbb2dd7a9da1dc8c7e1c01692cd0eab6e47a052b1e43992c7e6925797f",
      "blockNumber": "0x2c359b",
      "gasUsed": "0x153b7",
      "effectiveGasPrice": "0xf4248",
      "from": "0x1b382a7b4496f14e0aaa2da1e1626da400426a03",
      "to": "0x608d407fa33f179ea5070fddceced7a5e64d0063",
      "contractAddress": null
    },
    {
      "status": "0x1",
      "cumulativeGasUsed": "0x12f04b",
      "logs": [
        {
          "address": "0x722436623b696fb57521cd653fee7ecbfd391182",
          "topics": [
            "0x8c5be1e5ebec7d5bd14f71427d1e84f3dd0314c0f7b2291e5b200ac8c7c3b925",
            "0x0000000000000000000000001b382a7b4496f14e0aaa2da1e1626da400426a03",
            "0x000000000000000000000000608d407fa33f179ea5070fddceced7a5e64d0063"
          ],
          "data": "0xffffffffffffffffffffffffffffffffffffffffffffffffffffffffffffffff",
          "blockHash": "0x01a862dcbb300a03802dac85e4fd69548a6684777bd44ba2ac9c25f0f54a8ab1",
          "blockNumber": "0x2c359c",
          "transactionHash": "0xa0020842b7e551772c8d8b1a630749b3a383f8b4f2ec8162606786e1ddc8b44f",
          "transactionIndex": "0x9",
          "logIndex": "0x2e",
          "removed": false
        }
      ],
      "logsBloom": "0x00000000000000000000200000000000000000008000000000000000000000000000000000000000000200000000000000000000000000000000000000200000000000000000000000000000040000000000000000000000000000000000000000000000000000000000000000000000004000000010000020000000000000040000000000000000000000000000000000000000000000000000000000000000020000000000000000000000000000000000000000000000000000010000000000000000000000000000000000000000000000000000000000000000000000000010000000000000000000000000000000000000000000000000000000000000",
      "type": "0x2",
      "transactionHash": "0xa0020842b7e551772c8d8b1a630749b3a383f8b4f2ec8162606786e1ddc8b44f",
      "transactionIndex": "0x9",
      "blockHash": "0x01a862dcbb300a03802dac85e4fd69548a6684777bd44ba2ac9c25f0f54a8ab1",
      "blockNumber": "0x2c359c",
      "gasUsed": "0x670b",
      "effectiveGasPrice": "0xf4248",
      "from": "0x1b382a7b4496f14e0aaa2da1e1626da400426a03",
      "to": "0x722436623b696fb57521cd653fee7ecbfd391182",
      "contractAddress": null
    },
    {
      "status": "0x1",
      "cumulativeGasUsed": "0x199831",
      "logs": [
        {
          "address": "0x722436623b696fb57521cd653fee7ecbfd391182",
          "topics": [
            "0xddf252ad1be2c89b69c2b068fc378daa952ba7f163c4a11628f55a4df523b3ef",
            "0x0000000000000000000000001b382a7b4496f14e0aaa2da1e1626da400426a03",
            "0x000000000000000000000000608d407fa33f179ea5070fddceced7a5e64d0063"
          ],
          "data": "0x000000000000000000000000000000000000000000000000000000000003d091",
          "blockHash": "0x01a862dcbb300a03802dac85e4fd69548a6684777bd44ba2ac9c25f0f54a8ab1",
          "blockNumber": "0x2c359c",
          "transactionHash": "0x7a453fb40c535261771d0190971dbcad7855d95cf3e960afd9d851b1a34b6fba",
          "transactionIndex": "0xd",
          "logIndex": "0x38",
          "removed": false
        },
        {
          "address": "0x722436623b696fb57521cd653fee7ecbfd391182",
          "topics": [
            "0xddf252ad1be2c89b69c2b068fc378daa952ba7f163c4a11628f55a4df523b3ef",
            "0x000000000000000000000000608d407fa33f179ea5070fddceced7a5e64d0063",
            "0x0000000000000000000000000000000000000000000000000000000000000000"
          ],
          "data": "0x000000000000000000000000000000000000000000000000000000000003d091",
          "blockHash": "0x01a862dcbb300a03802dac85e4fd69548a6684777bd44ba2ac9c25f0f54a8ab1",
          "blockNumber": "0x2c359c",
          "transactionHash": "0x7a453fb40c535261771d0190971dbcad7855d95cf3e960afd9d851b1a34b6fba",
          "transactionIndex": "0xd",
          "logIndex": "0x39",
          "removed": false
        }
      ],
      "logsBloom": "0x00000000000000000000200000000000000000008000000000000000000000000000000000000000000200000000000000000000000000000000000000000000000000000000000000000008040000000000000000000000000000000000000000000000020000000000000000000800004000000010000020000010000000040000000000000000000000000000000000000000000000000000000000000000000000000000000000000000000000000000000000000000000000010000000000000002000000000000000000000000000000000000000000000000000020000000000000000000000000000000000000000000000000000000000000000000",
      "type": "0x2",
      "transactionHash": "0x7a453fb40c535261771d0190971dbcad7855d95cf3e960afd9d851b1a34b6fba",
      "transactionIndex": "0xd",
      "blockHash": "0x01a862dcbb300a03802dac85e4fd69548a6684777bd44ba2ac9c25f0f54a8ab1",
      "blockNumber": "0x2c359c",
      "gasUsed": "0x17c47",
      "effectiveGasPrice": "0xf4248",
      "from": "0x1b382a7b4496f14e0aaa2da1e1626da400426a03",
      "to": "0x608d407fa33f179ea5070fddceced7a5e64d0063",
      "contractAddress": null
    }
  ],
  "libraries": [],
  "pending": [],
  "returns": {},
  "timestamp": 1723680820,
  "chain": 80084,
  "commit": "1141ac7"
}