{
  "transactions": [
    {
      "hash": "0x6f31d563931d39604949969b28fbc53cc197e1514dab8265cdce77701d29cd8a",
      "transactionType": "CALL",
      "contractName": null,
      "contractAddress": "0x608d407fa33f179ea5070fddceced7a5e64d0063",
      "function": "buy(address,uint256,address)",
      "arguments": [
        "0x722436623b696FB57521cD653feE7EcBFD391182",
        "0",
        "0x1B382A7b4496F14e0AAA2DA1E1626Da400426A03"
      ],
      "transaction": {
        "from": "0x1b382a7b4496f14e0aaa2da1e1626da400426a03",
        "to": "0x608d407fa33f179ea5070fddceced7a5e64d0063",
        "gas": "0x3e403",
        "value": "0x2386f26fc10000",
        "input": "0xdb61c76e000000000000000000000000722436623b696fb57521cd653fee7ecbfd39118200000000000000000000000000000000000000000000000000000000000000000000000000000000000000001b382a7b4496f14e0aaa2da1e1626da400426a03",
        "nonce": "0x44",
        "chainId": "0x138d4"
      },
      "additionalContracts": [],
      "isFixedGasLimit": false
    },
    {
      "hash": "0x2a400f4ce14cc94291c94cd0ea75a4dc50055293cf5e93c57aa501a411a67d40",
      "transactionType": "CALL",
      "contractName": null,
      "contractAddress": "0x722436623b696fb57521cd653fee7ecbfd391182",
      "function": "approve(address,uint256)",
      "arguments": [
        "0x608d407fA33F179eA5070fddcEcED7A5e64d0063",
        "115792089237316195423570985008687907853269984665640564039457584007913129639935"
      ],
      "transaction": {
        "from": "0x1b382a7b4496f14e0aaa2da1e1626da400426a03",
        "to": "0x722436623b696fb57521cd653fee7ecbfd391182",
        "gas": "0xf9b2",
        "value": "0x0",
        "input": "0x095ea7b3000000000000000000000000608d407fa33f179ea5070fddceced7a5e64d0063ffffffffffffffffffffffffffffffffffffffffffffffffffffffffffffffff",
        "nonce": "0x45",
        "chainId": "0x138d4"
      },
      "additionalContracts": [],
      "isFixedGasLimit": false
    },
    {
      "hash": "0xcfa749d64a372e835504cfcb0cb14756b651980352a66f103f4c5ae43dfdfc6f",
      "transactionType": "CALL",
      "contractName": null,
      "contractAddress": "0x608d407fa33f179ea5070fddceced7a5e64d0063",
      "function": "sell(address,address,uint256)",
      "arguments": [
        "0x722436623b696FB57521cD653feE7EcBFD391182",
        "0x5b73C5498c1E3b4dbA84de0F1833c4a029d90519",
        "250001"
      ],
      "transaction": {
        "from": "0x1b382a7b4496f14e0aaa2da1e1626da400426a03",
        "to": "0x608d407fa33f179ea5070fddceced7a5e64d0063",
        "gas": "0x21acf",
        "value": "0x0",
        "input": "0xcae270b6000000000000000000000000722436623b696fb57521cd653fee7ecbfd3911820000000000000000000000005b73c5498c1e3b4dba84de0f1833c4a029d90519000000000000000000000000000000000000000000000000000000000003d091",
        "nonce": "0x46",
        "chainId": "0x138d4"
      },
      "additionalContracts": [],
      "isFixedGasLimit": false
    }
  ],
  "receipts": [
    {
      "status": "0x1",
      "cumulativeGasUsed": "0xae729",
      "logs": [
        {
          "address": "0x722436623b696fb57521cd653fee7ecbfd391182",
          "topics": [
            "0xddf252ad1be2c89b69c2b068fc378daa952ba7f163c4a11628f55a4df523b3ef",
            "0x0000000000000000000000000000000000000000000000000000000000000000",
            "0x000000000000000000000000608d407fa33f179ea5070fddceced7a5e64d0063"
          ],
          "data": "0x0000000000000000000000000000000000000000000000056ba3d73af34f09c3",
          "blockHash": "0x5305bc6aa1003c7396659d04760be44c3f3f3014c1511bd39084ddd9cd8287d2",
          "blockNumber": "0x2bf799",
          "transactionHash": "0x6f31d563931d39604949969b28fbc53cc197e1514dab8265cdce77701d29cd8a",
          "transactionIndex": "0x6",
          "logIndex": "0x13",
          "removed": false
        },
        {
          "address": "0x722436623b696fb57521cd653fee7ecbfd391182",
          "topics": [
            "0xddf252ad1be2c89b69c2b068fc378daa952ba7f163c4a11628f55a4df523b3ef",
            "0x000000000000000000000000608d407fa33f179ea5070fddceced7a5e64d0063",
            "0x0000000000000000000000001b382a7b4496f14e0aaa2da1e1626da400426a03"
          ],
          "data": "0x0000000000000000000000000000000000000000000000056ba3d73af34f09c3",
          "blockHash": "0x5305bc6aa1003c7396659d04760be44c3f3f3014c1511bd39084ddd9cd8287d2",
          "blockNumber": "0x2bf799",
          "transactionHash": "0x6f31d563931d39604949969b28fbc53cc197e1514dab8265cdce77701d29cd8a",
          "transactionIndex": "0x6",
          "logIndex": "0x14",
          "removed": false
        }
      ],
      "logsBloom": "0x00000000000000000000200000000000000000008000000000000000000000000000000000000000000200000000000000000000000000000000000000000000000000000000000000000008040000000000000000000000000000000000000000000000020000000000000000000800004000000010000020000010000000040000000000000000000000000000000000000000000000000000000000000000000000000000000000000000000000000000000000000000000000010000000000000002000000000000000000000000000000000000000000000000000020000000000000000000000000000000000000000000000000000000000000000000",
      "type": "0x2",
      "transactionHash": "0x6f31d563931d39604949969b28fbc53cc197e1514dab8265cdce77701d29cd8a",
      "transactionIndex": "0x6",
      "blockHash": "0x5305bc6aa1003c7396659d04760be44c3f3f3014c1511bd39084ddd9cd8287d2",
      "blockNumber": "0x2bf799",
      "gasUsed": "0x2a909",
      "effectiveGasPrice": "0xf4a59",
      "from": "0x1b382a7b4496f14e0aaa2da1e1626da400426a03",
      "to": "0x608d407fa33f179ea5070fddceced7a5e64d0063",
      "contractAddress": null
    },
    {
      "status": "0x1",
      "cumulativeGasUsed": "0x1a135f",
      "logs": [
        {
          "address": "0x722436623b696fb57521cd653fee7ecbfd391182",
          "topics": [
            "0x8c5be1e5ebec7d5bd14f71427d1e84f3dd0314c0f7b2291e5b200ac8c7c3b925",
            "0x0000000000000000000000001b382a7b4496f14e0aaa2da1e1626da400426a03",
            "0x000000000000000000000000608d407fa33f179ea5070fddceced7a5e64d0063"
          ],
          "data": "0xffffffffffffffffffffffffffffffffffffffffffffffffffffffffffffffff",
          "blockHash": "0x5305bc6aa1003c7396659d04760be44c3f3f3014c1511bd39084ddd9cd8287d2",
          "blockNumber": "0x2bf799",
          "transactionHash": "0x2a400f4ce14cc94291c94cd0ea75a4dc50055293cf5e93c57aa501a411a67d40",
          "transactionIndex": "0x9",
          "logIndex": "0x28",
          "removed": false
        }
      ],
      "logsBloom": "0x00000000000000000000200000000000000000008000000000000000000000000000000000000000000200000000000000000000000000000000000000200000000000000000000000000000040000000000000000000000000000000000000000000000000000000000000000000000004000000010000020000000000000040000000000000000000000000000000000000000000000000000000000000000020000000000000000000000000000000000000000000000000000010000000000000000000000000000000000000000000000000000000000000000000000000010000000000000000000000000000000000000000000000000000000000000",
      "type": "0x2",
      "transactionHash": "0x2a400f4ce14cc94291c94cd0ea75a4dc50055293cf5e93c57aa501a411a67d40",
      "transactionIndex": "0x9",
      "blockHash": "0x5305bc6aa1003c7396659d04760be44c3f3f3014c1511bd39084ddd9cd8287d2",
      "blockNumber": "0x2bf799",
      "gasUsed": "0xb4c7",
      "effectiveGasPrice": "0xf4a59",
      "from": "0x1b382a7b4496f14e0aaa2da1e1626da400426a03",
      "to": "0x722436623b696fb57521cd653fee7ecbfd391182",
      "contractAddress": null
    },
    {
      "status": "0x1",
      "cumulativeGasUsed": "0x1ea435",
      "logs": [
        {
          "address": "0x722436623b696fb57521cd653fee7ecbfd391182",
          "topics": [
            "0xddf252ad1be2c89b69c2b068fc378daa952ba7f163c4a11628f55a4df523b3ef",
            "0x0000000000000000000000001b382a7b4496f14e0aaa2da1e1626da400426a03",
            "0x000000000000000000000000608d407fa33f179ea5070fddceced7a5e64d0063"
          ],
          "data": "0x000000000000000000000000000000000000000000000000000000000003d091",
          "blockHash": "0x5305bc6aa1003c7396659d04760be44c3f3f3014c1511bd39084ddd9cd8287d2",
          "blockNumber": "0x2bf799",
          "transactionHash": "0xcfa749d64a372e835504cfcb0cb14756b651980352a66f103f4c5ae43dfdfc6f",
          "transactionIndex": "0xc",
          "logIndex": "0x2f",
          "removed": false
        },
        {
          "address": "0x722436623b696fb57521cd653fee7ecbfd391182",
          "topics": [
            "0xddf252ad1be2c89b69c2b068fc378daa952ba7f163c4a11628f55a4df523b3ef",
            "0x000000000000000000000000608d407fa33f179ea5070fddceced7a5e64d0063",
            "0x0000000000000000000000000000000000000000000000000000000000000000"
          ],
          "data": "0x000000000000000000000000000000000000000000000000000000000003d091",
          "blockHash": "0x5305bc6aa1003c7396659d04760be44c3f3f3014c1511bd39084ddd9cd8287d2",
          "blockNumber": "0x2bf799",
          "transactionHash": "0xcfa749d64a372e835504cfcb0cb14756b651980352a66f103f4c5ae43dfdfc6f",
          "transactionIndex": "0xc",
          "logIndex": "0x30",
          "removed": false
        }
      ],
      "logsBloom": "0x00000000000000000000200000000000000000008000000000000000000000000000000000000000000200000000000000000000000000000000000000000000000000000000000000000008040000000000000000000000000000000000000000000000020000000000000000000800004000000010000020000010000000040000000000000000000000000000000000000000000000000000000000000000000000000000000000000000000000000000000000000000000000010000000000000002000000000000000000000000000000000000000000000000000020000000000000000000000000000000000000000000000000000000000000000000",
      "type": "0x2",
      "transactionHash": "0xcfa749d64a372e835504cfcb0cb14756b651980352a66f103f4c5ae43dfdfc6f",
      "transactionIndex": "0xc",
      "blockHash": "0x5305bc6aa1003c7396659d04760be44c3f3f3014c1511bd39084ddd9cd8287d2",
      "blockNumber": "0x2bf799",
      "gasUsed": "0x18617",
      "effectiveGasPrice": "0xf4a59",
      "from": "0x1b382a7b4496f14e0aaa2da1e1626da400426a03",
      "to": "0x608d407fa33f179ea5070fddceced7a5e64d0063",
      "contractAddress": null
    }
  ],
  "libraries": [],
  "pending": [],
  "returns": {},
  "timestamp": 1723653295,
  "chain": 80084,
  "commit": "b3a771b"
}